{
  "contractName": "Insurance",
  "abi": [
    {
      "constant": true,
      "inputs": [
        {
          "name": "",
          "type": "uint256"
        }
      ],
      "name": "policies",
      "outputs": [
        {
          "name": "owner",
          "type": "address"
        },
        {
          "name": "balance",
          "type": "uint256"
        },
        {
          "name": "start_time",
          "type": "uint256"
        },
        {
          "name": "end_time",
          "type": "uint256"
        },
        {
          "name": "URL",
          "type": "string"
        },
        {
          "name": "state",
          "type": "uint8"
        }
      ],
      "payable": false,
      "stateMutability": "view",
      "type": "function"
    },
    {
      "inputs": [],
      "payable": true,
      "stateMutability": "payable",
      "type": "constructor"
    },
    {
      "anonymous": false,
      "inputs": [
        {
          "indexed": false,
          "name": "add",
          "type": "address"
        },
        {
          "indexed": false,
          "name": "amount",
          "type": "uint256"
        },
        {
          "indexed": false,
          "name": "state",
          "type": "uint8"
        }
      ],
      "name": "LogTransfer",
      "type": "event"
    },
    {
      "constant": true,
      "inputs": [],
      "name": "numPolicies",
      "outputs": [
        {
          "name": "",
          "type": "uint256"
        }
      ],
      "payable": false,
      "stateMutability": "view",
      "type": "function"
    },
    {
      "constant": false,
      "inputs": [
        {
          "name": "receivers",
          "type": "address[]"
        },
        {
          "name": "start_time",
          "type": "uint256"
        },
        {
          "name": "end_time",
          "type": "uint256"
        },
        {
          "name": "URL",
          "type": "string"
        },
        {
          "name": "state",
          "type": "uint8"
        }
      ],
      "name": "create",
      "outputs": [],
      "payable": true,
      "stateMutability": "payable",
      "type": "function"
    },
    {
      "constant": false,
      "inputs": [],
      "name": "checkExpired",
      "outputs": [],
      "payable": false,
      "stateMutability": "nonpayable",
      "type": "function"
    },
    {
      "constant": false,
      "inputs": [],
      "name": "ping",
      "outputs": [],
      "payable": false,
      "stateMutability": "nonpayable",
      "type": "function"
    },
    {
      "constant": false,
      "inputs": [
        {
          "name": "queryId",
          "type": "bytes32"
        },
        {
          "name": "result",
          "type": "string"
        }
      ],
      "name": "__callback",
      "outputs": [],
      "payable": false,
      "stateMutability": "nonpayable",
      "type": "function"
    },
    {
      "constant": false,
      "inputs": [
        {
          "name": "myid",
          "type": "bytes32"
        },
        {
          "name": "result",
          "type": "string"
        },
        {
          "name": "proof",
          "type": "bytes"
        }
      ],
      "name": "__callback",
      "outputs": [],
      "payable": false,
      "stateMutability": "nonpayable",
      "type": "function"
    },
    {
      "constant": false,
      "inputs": [
        {
          "name": "index",
          "type": "uint256"
        },
        {
          "name": "state",
          "type": "uint8"
        }
      ],
      "name": "release",
      "outputs": [],
      "payable": false,
      "stateMutability": "nonpayable",
      "type": "function"
    },
    {
      "constant": false,
      "inputs": [
        {
          "name": "index",
          "type": "uint256"
        }
      ],
      "name": "force_release",
      "outputs": [],
      "payable": false,
      "stateMutability": "nonpayable",
      "type": "function"
    }
  ],
  "bytecode": "0x6080604052736f485c8bf6fc43ea212e93bbf8ce046c7f1cb4756000806101000a81548173ffffffffffffffffffffffffffffffffffffffff021916908373ffffffffffffffffffffffffffffffffffffffff160217905550612394806100676000396000f300608060405260043610610099576000357c0100000000000000000000000000000000000000000000000000000000900463ffffffff1680630cd4c66a1461009e5780630eae0f0e146100cb57806325ace2a71461010557806327dc297e1461011c57806338bbfa501461019357806346600867146102505780635c36b18614610310578063d3e8948314610327578063eaa096841461042a575b600080fd5b3480156100aa57600080fd5b506100c960048036038101908080359060200190929190505050610455565b005b3480156100d757600080fd5b5061010360048036038101908080359060200190929190803560ff1690602001909291905050506104dd565b005b34801561011157600080fd5b5061011a6107f2565b005b34801561012857600080fd5b506101916004803603810190808035600019169060200190929190803590602001908201803590602001908080601f0160208091040260200160405190810160405280939291908181526020018383808284378201915050505050509192919290505050610aad565b005b34801561019f57600080fd5b5061024e6004803603810190808035600019169060200190929190803590602001908201803590602001908080601f0160208091040260200160405190810160405280939291908181526020018383808284378201915050505050509192919290803590602001908201803590602001908080601f0160208091040260200160405190810160405280939291908181526020018383808284378201915050505050509192919290505050610b81565b005b61030e600480360381019080803590602001908201803590602001908080602002602001604051908101604052809392919081815260200183836020028082843782019150505050505091929192908035906020019092919080359060200190929190803590602001908201803590602001908080601f0160208091040260200160405190810160405280939291908181526020018383808284378201915050505050509192919290803560ff169060200190929190505050610b86565b005b34801561031c57600080fd5b50610325610d55565b005b34801561033357600080fd5b5061035260048036038101908080359060200190929190505050610ef0565b604051808773ffffffffffffffffffffffffffffffffffffffff1673ffffffffffffffffffffffffffffffffffffffff168152602001868152602001858152602001848152602001806020018360038111156103aa57fe5b60ff168152602001828103825284818151815260200191508051906020019080838360005b838110156103ea5780820151818401526020810190506103cf565b50505050905090810190601f1680156104175780820380516001836020036101000a031916815260200191505b5097505050505050505060405180910390f35b34801561043657600080fd5b5061043f611000565b6040518082815260200191505060405180910390f35b60058181548110151561046457fe5b906000526020600020906007020160000160009054906101000a900473ffffffffffffffffffffffffffffffffffffffff1673ffffffffffffffffffffffffffffffffffffffff163373ffffffffffffffffffffffffffffffffffffffff161415156104cf57600080fd5b6104da8160036104dd565b50565b600080600060038111156104ed57fe5b8360038111156104f957fe5b1415151561050357fe5b6001600381111561051057fe5b83600381111561051c57fe5b1415151561052657fe5b6000600381111561053357fe5b60058581548110151561054257fe5b906000526020600020906007020160060160009054906101000a900460ff16600381111561056c57fe5b14156107ec578260058581548110151561058257fe5b906000526020600020906007020160060160006101000a81548160ff021916908360038111156105ae57fe5b02179055506106006005858154811015156105c557fe5b9060005260206000209060070201600101546005868154811015156105e657fe5b90600052602060002090600702016002018054905061100d565b9150600090505b60058481548110151561061657fe5b9060005260206000209060070201600201805490508110156107eb577fe8a9ad318bf1a6884952ce534e99a39ab774beeeb04ee186691d3eeb77dcda8960058281548110151561066257fe5b906000526020600020906007020160000160009054906101000a900473ffffffffffffffffffffffffffffffffffffffff166005838154811015156106a357fe5b9060005260206000209060070201600101546005878154811015156106c457fe5b906000526020600020906007020160060160009054906101000a900460ff16604051808473ffffffffffffffffffffffffffffffffffffffff1673ffffffffffffffffffffffffffffffffffffffff16815260200183815260200182600381111561072b57fe5b60ff168152602001935050505060405180910390a160058481548110151561074f57fe5b90600052602060002090600702016002018181548110151561076d57fe5b9060005260206000200160009054906101000a900473ffffffffffffffffffffffffffffffffffffffff1673ffffffffffffffffffffffffffffffffffffffff166108fc839081150290604051600060405180830381858888f193505050501580156107dd573d6000803e3d6000fd5b508080600101915050610607565b5b50505050565b60008090505b600580549050811015610aaa576000600381111561081257fe5b60058281548110151561082157fe5b906000526020600020906007020160060160009054906101000a900460ff16600381111561084b57fe5b1415610a9d574260058281548110151561086157fe5b90600052602060002090600702016003015410801561089f57504260058281548110151561088b57fe5b906000526020600020906007020160040154105b15610a9c5760016005828154811015156108b557fe5b906000526020600020906007020160060160006101000a81548160ff021916908360038111156108e157fe5b02179055507fe8a9ad318bf1a6884952ce534e99a39ab774beeeb04ee186691d3eeb77dcda8960058281548110151561091657fe5b906000526020600020906007020160000160009054906101000a900473ffffffffffffffffffffffffffffffffffffffff1660058381548110151561095757fe5b90600052602060002090600702016001015460058481548110151561097857fe5b906000526020600020906007020160060160009054906101000a900460ff16604051808473ffffffffffffffffffffffffffffffffffffffff1673ffffffffffffffffffffffffffffffffffffffff1681526020018381526020018260038111156109df57fe5b60ff168152602001935050505060405180910390a1600581815481101515610a0357fe5b906000526020600020906007020160000160009054906101000a900473ffffffffffffffffffffffffffffffffffffffff1673ffffffffffffffffffffffffffffffffffffffff166108fc600583815481101515610a5d57fe5b9060005260206000209060070201600101549081150290604051600060405180830381858888f19350505050158015610a9a573d6000803e3d6000fd5b505b5b80806001019150506107f8565b50565b600080600660008560001916600019168152602001908152602001600020541415610ad757600080fd5b610adf611023565b73ffffffffffffffffffffffffffffffffffffffff163373ffffffffffffffffffffffffffffffffffffffff16141515610b1857600080fd5b6000610b2383611381565b1115610b5d57610b4f600660008560001916600019168152602001908152602001600020546001611395565b9050610b5c8160026104dd565b5b60066000846000191660001916815260200190815260200160002060009055505050565b505050565b610b8e612117565b60008651111515610b9e57600080fd5b600085111515610bad57600080fd5b8385101515610bbb57600080fd5b600034111515610bca57600080fd5b33816000019073ffffffffffffffffffffffffffffffffffffffff16908173ffffffffffffffffffffffffffffffffffffffff1681525050348160200181815250508581604001819052508481606001818152505083816080018181525050828160a00181905250818160c001906003811115610c4357fe5b90816003811115610c5057fe5b815250506005819080600181540180825580915050906001820390600052602060002090600702016000909192909190915060008201518160000160006101000a81548173ffffffffffffffffffffffffffffffffffffffff021916908373ffffffffffffffffffffffffffffffffffffffff160217905550602082015181600101556040820151816002019080519060200190610cef929190612176565b50606082015181600301556080820151816004015560a0820151816005019080519060200190610d20929190612200565b5060c08201518160060160006101000a81548160ff02191690836003811115610d4557fe5b0217905550505050505050505050565b600080610d606107f2565b600091505b600580549050821015610eec5760006003811115610d7f57fe5b600583815481101515610d8e57fe5b906000526020600020906007020160060160009054906101000a900460ff166003811115610db857fe5b1415610edf57610eb96040805190810160405280600381526020017f55524c0000000000000000000000000000000000000000000000000000000000815250600584815481101515610e0657fe5b90600052602060002090600702016005018054600181600116156101000203166002900480601f016020809104026020016040519081016040528092919081815260200182805460018160011615610100020316600290048015610eab5780601f10610e8057610100808354040283529160200191610eab565b820191906000526020600020905b815481529060010190602001808311610e8e57829003601f168201915b5050505050620f42406113ae565b905060018201600660008360001916600019168152602001908152602001600020819055505b8180600101925050610d65565b5050565b600581815481101515610eff57fe5b90600052602060002090600702016000915090508060000160009054906101000a900473ffffffffffffffffffffffffffffffffffffffff1690806001015490806003015490806004015490806005018054600181600116156101000203166002900480601f016020809104026020016040519081016040528092919081815260200182805460018160011615610100020316600290048015610fe35780601f10610fb857610100808354040283529160200191610fe3565b820191906000526020600020905b815481529060010190602001808311610fc657829003601f168201915b5050505050908060060160009054906101000a900460ff16905086565b6000600580549050905090565b6000818381151561101a57fe5b04905092915050565b6000806000809054906101000a900473ffffffffffffffffffffffffffffffffffffffff1673ffffffffffffffffffffffffffffffffffffffff161480611093575060006110916000809054906101000a900473ffffffffffffffffffffffffffffffffffffffff1661195e565b145b156110a4576110a26000611969565b505b6000809054906101000a900473ffffffffffffffffffffffffffffffffffffffff1673ffffffffffffffffffffffffffffffffffffffff166338cc48316040518163ffffffff167c0100000000000000000000000000000000000000000000000000000000028152600401602060405180830381600087803b15801561112957600080fd5b505af115801561113d573d6000803e3d6000fd5b505050506040513d602081101561115357600080fd5b810190808051906020019092919050505073ffffffffffffffffffffffffffffffffffffffff16600160009054906101000a900473ffffffffffffffffffffffffffffffffffffffff1673ffffffffffffffffffffffffffffffffffffffff161415156112bb576000809054906101000a900473ffffffffffffffffffffffffffffffffffffffff1673ffffffffffffffffffffffffffffffffffffffff166338cc48316040518163ffffffff167c0100000000000000000000000000000000000000000000000000000000028152600401602060405180830381600087803b15801561123f57600080fd5b505af1158015611253573d6000803e3d6000fd5b505050506040513d602081101561126957600080fd5b8101908080519060200190929190505050600160006101000a81548173ffffffffffffffffffffffffffffffffffffffff021916908373ffffffffffffffffffffffffffffffffffffffff1602179055505b600160009054906101000a900473ffffffffffffffffffffffffffffffffffffffff1673ffffffffffffffffffffffffffffffffffffffff1663c281d19e6040518163ffffffff167c0100000000000000000000000000000000000000000000000000000000028152600401602060405180830381600087803b15801561134157600080fd5b505af1158015611355573d6000803e3d6000fd5b505050506040513d602081101561136b57600080fd5b8101908080519060200190929190505050905090565b600061138e82600061197a565b9050919050565b60008282111515156113a357fe5b818303905092915050565b60008060008060009054906101000a900473ffffffffffffffffffffffffffffffffffffffff1673ffffffffffffffffffffffffffffffffffffffff1614806114205750600061141e6000809054906101000a900473ffffffffffffffffffffffffffffffffffffffff1661195e565b145b156114315761142f6000611969565b505b6000809054906101000a900473ffffffffffffffffffffffffffffffffffffffff1673ffffffffffffffffffffffffffffffffffffffff166338cc48316040518163ffffffff167c0100000000000000000000000000000000000000000000000000000000028152600401602060405180830381600087803b1580156114b657600080fd5b505af11580156114ca573d6000803e3d6000fd5b505050506040513d60208110156114e057600080fd5b810190808051906020019092919050505073ffffffffffffffffffffffffffffffffffffffff16600160009054906101000a900473ffffffffffffffffffffffffffffffffffffffff1673ffffffffffffffffffffffffffffffffffffffff16141515611648576000809054906101000a900473ffffffffffffffffffffffffffffffffffffffff1673ffffffffffffffffffffffffffffffffffffffff166338cc48316040518163ffffffff167c0100000000000000000000000000000000000000000000000000000000028152600401602060405180830381600087803b1580156115cc57600080fd5b505af11580156115e0573d6000803e3d6000fd5b505050506040513d60208110156115f657600080fd5b8101908080519060200190929190505050600160006101000a81548173ffffffffffffffffffffffffffffffffffffffff021916908373ffffffffffffffffffffffffffffffffffffffff1602179055505b600160009054906101000a900473ffffffffffffffffffffffffffffffffffffffff1673ffffffffffffffffffffffffffffffffffffffff16632ef3accc86856040518363ffffffff167c01000000000000000000000000000000000000000000000000000000000281526004018080602001838152602001828103825284818151815260200191508051906020019080838360005b838110156116f95780820151818401526020810190506116de565b50505050905090810190601f1680156117265780820380516001836020036101000a031916815260200191505b509350505050602060405180830381600087803b15801561174657600080fd5b505af115801561175a573d6000803e3d6000fd5b505050506040513d602081101561177057600080fd5b81019080805190602001909291905050509050823a02670de0b6b3a7640000018111156117a35760006001029150611956565b600160009054906101000a900473ffffffffffffffffffffffffffffffffffffffff1673ffffffffffffffffffffffffffffffffffffffff1663c51be90f8260008888886040518663ffffffff167c0100000000000000000000000000000000000000000000000000000000028152600401808581526020018060200180602001848152602001838103835286818151815260200191508051906020019080838360005b83811015611862578082015181840152602081019050611847565b50505050905090810190601f16801561188f5780820380516001836020036101000a031916815260200191505b50838103825285818151815260200191508051906020019080838360005b838110156118c85780820151818401526020810190506118ad565b50505050905090810190601f1680156118f55780820380516001836020036101000a031916815260200191505b5096505050505050506020604051808303818588803b15801561191757600080fd5b505af115801561192b573d6000803e3d6000fd5b50505050506040513d602081101561194257600080fd5b810190808051906020019092919050505091505b509392505050565b6000813b9050919050565b6000611973611c6e565b9050919050565b6000606060008060008693506000925060009150600090505b8351811015611c4f5760307f01000000000000000000000000000000000000000000000000000000000000000284828151811015156119ce57fe5b9060200101517f010000000000000000000000000000000000000000000000000000000000000090047f0100000000000000000000000000000000000000000000000000000000000000027effffffffffffffffffffffffffffffffffffffffffffffffffffffffffffff191610158015611ae6575060397f0100000000000000000000000000000000000000000000000000000000000000028482815181101515611a7657fe5b9060200101517f010000000000000000000000000000000000000000000000000000000000000090047f0100000000000000000000000000000000000000000000000000000000000000027effffffffffffffffffffffffffffffffffffffffffffffffffffffffffffff191611155b15611b97578115611b09576000861415611aff57611c4f565b8580600190039650505b600a8302925060308482815181101515611b1f57fe5b9060200101517f010000000000000000000000000000000000000000000000000000000000000090047f0100000000000000000000000000000000000000000000000000000000000000027f010000000000000000000000000000000000000000000000000000000000000090040383019250611c42565b602e7f0100000000000000000000000000000000000000000000000000000000000000028482815181101515611bc957fe5b9060200101517f010000000000000000000000000000000000000000000000000000000000000090047f0100000000000000000000000000000000000000000000000000000000000000027effffffffffffffffffffffffffffffffffffffffffffffffffffffffffffff19161415611c4157600191505b5b8080600101915050611993565b6000861115611c615785600a0a830292505b8294505050505092915050565b600080611c8e731d3b2638a7cc9f2cb3d298a3da7a90b67e5506ed61195e565b1115611d2f57731d3b2638a7cc9f2cb3d298a3da7a90b67e5506ed6000806101000a81548173ffffffffffffffffffffffffffffffffffffffff021916908373ffffffffffffffffffffffffffffffffffffffff160217905550611d266040805190810160405280600b81526020017f6574685f6d61696e6e65740000000000000000000000000000000000000000008152506120fd565b600190506120fa565b6000611d4e73c03a2615d5efaf5f49f60b7bb6583eaec212fdf161195e565b1115611def5773c03a2615d5efaf5f49f60b7bb6583eaec212fdf16000806101000a81548173ffffffffffffffffffffffffffffffffffffffff021916908373ffffffffffffffffffffffffffffffffffffffff160217905550611de66040805190810160405280600c81526020017f6574685f726f707374656e3300000000000000000000000000000000000000008152506120fd565b600190506120fa565b6000611e0e73b7a07bcf2ba2f2703b24c0691b5278999c59ac7e61195e565b1115611eaf5773b7a07bcf2ba2f2703b24c0691b5278999c59ac7e6000806101000a81548173ffffffffffffffffffffffffffffffffffffffff021916908373ffffffffffffffffffffffffffffffffffffffff160217905550611ea66040805190810160405280600981526020017f6574685f6b6f76616e00000000000000000000000000000000000000000000008152506120fd565b600190506120fa565b6000611ece73146500cfd35b22e4a392fe0adc06de1a1368ed4861195e565b1115611f6f5773146500cfd35b22e4a392fe0adc06de1a1368ed486000806101000a81548173ffffffffffffffffffffffffffffffffffffffff021916908373ffffffffffffffffffffffffffffffffffffffff160217905550611f666040805190810160405280600b81526020017f6574685f72696e6b6562790000000000000000000000000000000000000000008152506120fd565b600190506120fa565b6000611f8e736f485c8bf6fc43ea212e93bbf8ce046c7f1cb47561195e565b1115611ff157736f485c8bf6fc43ea212e93bbf8ce046c7f1cb4756000806101000a81548173ffffffffffffffffffffffffffffffffffffffff021916908373ffffffffffffffffffffffffffffffffffffffff160217905550600190506120fa565b60006120107320e12a1f859b3feae5fb2a0a32c18f5a65555bbf61195e565b1115612073577320e12a1f859b3feae5fb2a0a32c18f5a65555bbf6000806101000a81548173ffffffffffffffffffffffffffffffffffffffff021916908373ffffffffffffffffffffffffffffffffffffffff160217905550600190506120fa565b60006120927351efaf4c8b3c9afbd5ab9f4bbc82784ab6ef8faa61195e565b11156120f5577351efaf4c8b3c9afbd5ab9f4bbc82784ab6ef8faa6000806101000a81548173ffffffffffffffffffffffffffffffffffffffff021916908373ffffffffffffffffffffffffffffffffffffffff160217905550600190506120fa565b600090505b90565b8060029080519060200190612113929190612280565b5050565b60e060405190810160405280600073ffffffffffffffffffffffffffffffffffffffff16815260200160008152602001606081526020016000815260200160008152602001606081526020016000600381111561217057fe5b81525090565b8280548282559060005260206000209081019282156121ef579160200282015b828111156121ee5782518260006101000a81548173ffffffffffffffffffffffffffffffffffffffff021916908373ffffffffffffffffffffffffffffffffffffffff16021790555091602001919060010190612196565b5b5090506121fc9190612300565b5090565b828054600181600116156101000203166002900490600052602060002090601f016020900481019282601f1061224157805160ff191683800117855561226f565b8280016001018555821561226f579182015b8281111561226e578251825591602001919060010190612253565b5b50905061227c9190612343565b5090565b828054600181600116156101000203166002900490600052602060002090601f016020900481019282601f106122c157805160ff19168380011785556122ef565b828001600101855582156122ef579182015b828111156122ee5782518255916020019190600101906122d3565b5b5090506122fc9190612343565b5090565b61234091905b8082111561233c57600081816101000a81549073ffffffffffffffffffffffffffffffffffffffff021916905550600101612306565b5090565b90565b61236591905b80821115612361576000816000905550600101612349565b5090565b905600a165627a7a72305820f86b2b89ca754a24b1c1c6d185f4d5608b978219046a901170051d546763ef2c0029",
  "source": "pragma solidity ^0.4.24;\n\n/*\nimport \"https://github.com/oraclize/ethereum-api/oraclizeAPI.sol\";\nimport \"https://github.com/OpenZeppelin/zeppelin-solidity/contracts/math/SafeMath.sol\";\n*/\n\nimport \"openzeppelin-solidity/contracts/math/SafeMath.sol\";\nimport \"oraclize-api/contracts/usingOraclize.sol\";\n\n\ncontract Insurance is usingOraclize {\n\n    enum State {PENDING, REFUNDED, RELEASED, FORCED}\n\n    event LogTransfer(address add, uint amount, State state);\n\n    struct Policy {\n        address owner;\n        uint256 balance;\n        address[] receivers;\n        uint256 start_time;\n        uint256 end_time;\n        string URL;\n        State state;\n    }\n    Policy[] public policies;\n    mapping(bytes32=>uint) private queryIndexes;\n\n    constructor() public payable {\n        OAR = OraclizeAddrResolverI(0x6f485c8bf6fc43ea212e93bbf8ce046c7f1cb475);\n    }\n\n    function numPolicies() public constant returns(uint) {\n        return policies.length;\n    }\n\n    function create(address[] receivers,\n        uint256 start_time,\n        uint256 end_time,\n        string URL,\n        State state) public payable {\n            require(receivers.length > 0);\n            require(start_time > 0);\n            require(start_time < end_time);\n            require(msg.value > 0);\n            Policy memory p;\n            p.owner = msg.sender;\n            p.balance = msg.value;\n            p.receivers = receivers;\n            p.start_time = start_time;\n            p.end_time = end_time;\n            p.URL = URL;\n            p.state = state;\n            policies.push(p);\n      }\n\n      // Check if any of the policies have expired\n      function checkExpired() public {\n          for(uint i = 0; i < policies.length; i++) {\n              // only check policies which are still PENDING\n              if(policies[i].state == State.PENDING) {\n                  if(policies[i].start_time < block.timestamp && policies[i].end_time < block.timestamp) {\n                      policies[i].state = State.REFUNDED;\n                      emit LogTransfer(policies[i].owner, policies[i].balance, policies[i].state);\n                      // policies[i].owner.estimateGas().send(policies[i].balance);\n                      policies[i].owner.transfer(policies[i].balance);\n                  }\n              }\n          }\n      }\n\n      // Run the oracle to check if any policy should be released\n      function ping() public {\n          checkExpired();\n          for(uint i = 0; i < policies.length; i++) {\n              // only query policies which are still PENDING\n              if(policies[i].state == State.PENDING) {\n                  bytes32 queryId = oraclize_query(\"URL\", policies[i].URL, 1000000);\n                  queryIndexes[queryId] = i + 1;\n              }\n          }\n      }\n\n    // Function to be called by Oraclize after it loads the URL\n    function __callback(bytes32 queryId, string memory result) public {\n        if (queryIndexes[queryId] == 0) revert();\n        if (msg.sender != oraclize_cbAddress()) revert();\n\n        if(parseInt(result) > 0) {\n            uint index = SafeMath.sub(queryIndexes[queryId], 1);\n            release(index, State.RELEASED);\n        }\n        delete queryIndexes[queryId];\n    }\n\n    function release(uint index, State state) public {\n        // Ensure that this function is only being called on PENDING policies\n        assert(state != State.PENDING);\n        assert(state != State.REFUNDED);\n        if(policies[index].state == State.PENDING) {\n            policies[index].state = state;\n            uint amount = SafeMath.div(policies[index].balance, policies[index].receivers.length);\n            for(uint i = 0; i < policies[index].receivers.length; i++) {\n                emit LogTransfer(policies[i].owner, policies[i].balance, policies[index].state);\n                policies[index].receivers[i].transfer(amount);\n            }\n        }\n    }\n\n    function force_release(uint index) public {\n        require(msg.sender == policies[index].owner);\n        release(index, State.FORCED);\n    }\n}\n",
  "sourcePath": "/home/anuj/dev/eth/dInsurance/contracts/Insurance.sol",
  "compiler": {
    "name": "solc",
    "version": "0.4.24+commit.e67f0147.Emscripten.clang"
  },
  "schemaVersion": "2.0.1",
  "updatedAt": "2018-08-28T09:17:16.031Z"
}